{
  "_format": "hh-sol-artifact-1",
  "contractName": "NFT",
  "sourceName": "contracts/NFT.sol",
  "abi": [
    {
      "inputs": [
        {
          "internalType": "address",
          "name": "marketplaceAddress",
          "type": "address"
        }
      ],
      "stateMutability": "nonpayable",
      "type": "constructor"
    },
    {
      "anonymous": false,
      "inputs": [
        {
          "indexed": true,
          "internalType": "address",
          "name": "owner",
          "type": "address"
        },
        {
          "indexed": true,
          "internalType": "address",
          "name": "approved",
          "type": "address"
        },
        {
          "indexed": true,
          "internalType": "uint256",
          "name": "tokenId",
          "type": "uint256"
        }
      ],
      "name": "Approval",
      "type": "event"
    },
    {
      "anonymous": false,
      "inputs": [
        {
          "indexed": true,
          "internalType": "address",
          "name": "owner",
          "type": "address"
        },
        {
          "indexed": true,
          "internalType": "address",
          "name": "operator",
          "type": "address"
        },
        {
          "indexed": false,
          "internalType": "bool",
          "name": "approved",
          "type": "bool"
        }
      ],
      "name": "ApprovalForAll",
      "type": "event"
    },
    {
      "anonymous": false,
      "inputs": [
        {
          "indexed": true,
          "internalType": "address",
          "name": "previousOwner",
          "type": "address"
        },
        {
          "indexed": true,
          "internalType": "address",
          "name": "newOwner",
          "type": "address"
        }
      ],
      "name": "OwnershipTransferred",
      "type": "event"
    },
    {
      "anonymous": false,
      "inputs": [
        {
          "indexed": true,
          "internalType": "address",
          "name": "from",
          "type": "address"
        },
        {
          "indexed": true,
          "internalType": "address",
          "name": "to",
          "type": "address"
        },
        {
          "indexed": true,
          "internalType": "uint256",
          "name": "tokenId",
          "type": "uint256"
        }
      ],
      "name": "Transfer",
      "type": "event"
    },
    {
      "inputs": [
        {
          "internalType": "address",
          "name": "to",
          "type": "address"
        },
        {
          "internalType": "uint256",
          "name": "tokenId",
          "type": "uint256"
        }
      ],
      "name": "approve",
      "outputs": [],
      "stateMutability": "nonpayable",
      "type": "function"
    },
    {
      "inputs": [
        {
          "internalType": "address",
          "name": "owner",
          "type": "address"
        }
      ],
      "name": "balanceOf",
      "outputs": [
        {
          "internalType": "uint256",
          "name": "",
          "type": "uint256"
        }
      ],
      "stateMutability": "view",
      "type": "function"
    },
    {
      "inputs": [
        {
          "internalType": "string",
          "name": "tokenURI",
          "type": "string"
        }
      ],
      "name": "createToken",
      "outputs": [
        {
          "internalType": "uint256",
          "name": "",
          "type": "uint256"
        }
      ],
      "stateMutability": "nonpayable",
      "type": "function"
    },
    {
      "inputs": [
        {
          "internalType": "uint256",
          "name": "tokenId",
          "type": "uint256"
        }
      ],
      "name": "getApproved",
      "outputs": [
        {
          "internalType": "address",
          "name": "",
          "type": "address"
        }
      ],
      "stateMutability": "view",
      "type": "function"
    },
    {
      "inputs": [
        {
          "internalType": "address",
          "name": "owner",
          "type": "address"
        },
        {
          "internalType": "address",
          "name": "operator",
          "type": "address"
        }
      ],
      "name": "isApprovedForAll",
      "outputs": [
        {
          "internalType": "bool",
          "name": "",
          "type": "bool"
        }
      ],
      "stateMutability": "view",
      "type": "function"
    },
    {
      "inputs": [],
      "name": "name",
      "outputs": [
        {
          "internalType": "string",
          "name": "",
          "type": "string"
        }
      ],
      "stateMutability": "view",
      "type": "function"
    },
    {
      "inputs": [],
      "name": "owner",
      "outputs": [
        {
          "internalType": "address",
          "name": "",
          "type": "address"
        }
      ],
      "stateMutability": "view",
      "type": "function"
    },
    {
      "inputs": [
        {
          "internalType": "uint256",
          "name": "tokenId",
          "type": "uint256"
        }
      ],
      "name": "ownerOf",
      "outputs": [
        {
          "internalType": "address",
          "name": "",
          "type": "address"
        }
      ],
      "stateMutability": "view",
      "type": "function"
    },
    {
      "inputs": [],
      "name": "renounceOwnership",
      "outputs": [],
      "stateMutability": "nonpayable",
      "type": "function"
    },
    {
      "inputs": [
        {
          "internalType": "address",
          "name": "from",
          "type": "address"
        },
        {
          "internalType": "address",
          "name": "to",
          "type": "address"
        },
        {
          "internalType": "uint256",
          "name": "tokenId",
          "type": "uint256"
        }
      ],
      "name": "safeTransferFrom",
      "outputs": [],
      "stateMutability": "nonpayable",
      "type": "function"
    },
    {
      "inputs": [
        {
          "internalType": "address",
          "name": "from",
          "type": "address"
        },
        {
          "internalType": "address",
          "name": "to",
          "type": "address"
        },
        {
          "internalType": "uint256",
          "name": "tokenId",
          "type": "uint256"
        },
        {
          "internalType": "bytes",
          "name": "_data",
          "type": "bytes"
        }
      ],
      "name": "safeTransferFrom",
      "outputs": [],
      "stateMutability": "nonpayable",
      "type": "function"
    },
    {
      "inputs": [
        {
          "internalType": "address",
          "name": "operator",
          "type": "address"
        },
        {
          "internalType": "bool",
          "name": "approved",
          "type": "bool"
        }
      ],
      "name": "setApprovalForAll",
      "outputs": [],
      "stateMutability": "nonpayable",
      "type": "function"
    },
    {
      "inputs": [
        {
          "internalType": "bytes4",
          "name": "interfaceId",
          "type": "bytes4"
        }
      ],
      "name": "supportsInterface",
      "outputs": [
        {
          "internalType": "bool",
          "name": "",
          "type": "bool"
        }
      ],
      "stateMutability": "view",
      "type": "function"
    },
    {
      "inputs": [],
      "name": "symbol",
      "outputs": [
        {
          "internalType": "string",
          "name": "",
          "type": "string"
        }
      ],
      "stateMutability": "view",
      "type": "function"
    },
    {
      "inputs": [
        {
          "internalType": "uint256",
          "name": "tokenId",
          "type": "uint256"
        }
      ],
      "name": "tokenURI",
      "outputs": [
        {
          "internalType": "string",
          "name": "",
          "type": "string"
        }
      ],
      "stateMutability": "view",
      "type": "function"
    },
    {
      "inputs": [
        {
          "internalType": "address",
          "name": "from",
          "type": "address"
        },
        {
          "internalType": "address",
          "name": "to",
          "type": "address"
        },
        {
          "internalType": "uint256",
          "name": "tokenId",
          "type": "uint256"
        }
      ],
      "name": "transferFrom",
      "outputs": [],
      "stateMutability": "nonpayable",
      "type": "function"
    },
    {
      "inputs": [
        {
          "internalType": "address",
          "name": "newOwner",
          "type": "address"
        }
      ],
      "name": "transferOwnership",
      "outputs": [],
      "stateMutability": "nonpayable",
      "type": "function"
    }
  ],
  "bytecode": "0x60806040523480156200001157600080fd5b5060405162001aed38038062001aed8339810160408190526200003491620001d4565b604080518082018252600881526720a7a52a37b5b2b760c11b60208083019182528351808501909452600384526220a7a560e91b9084015281519192916200007f916000916200012e565b508051620000959060019060208401906200012e565b505050620000b2620000ac620000d860201b60201c565b620000dc565b600980546001600160a01b0319166001600160a01b039290921691909117905562000241565b3390565b600780546001600160a01b038381166001600160a01b0319831681179093556040519116919082907f8be0079c531659141344cd1fd0a4f28419497f9722a3daafe3b4186f6b6457e090600090a35050565b8280546200013c9062000204565b90600052602060002090601f016020900481019282620001605760008555620001ab565b82601f106200017b57805160ff1916838001178555620001ab565b82800160010185558215620001ab579182015b82811115620001ab5782518255916020019190600101906200018e565b50620001b9929150620001bd565b5090565b5b80821115620001b95760008155600101620001be565b600060208284031215620001e6578081fd5b81516001600160a01b0381168114620001fd578182fd5b9392505050565b600181811c908216806200021957607f821691505b602082108114156200023b57634e487b7160e01b600052602260045260246000fd5b50919050565b61189c80620002516000396000f3fe608060405234801561001057600080fd5b506004361061010b5760003560e01c806370a08231116100a2578063a22cb46511610071578063a22cb4651461021b578063b88d4fde1461022e578063c87b56dd14610241578063e985e9c514610254578063f2fde38b1461029057600080fd5b806370a08231146101e7578063715018a6146101fa5780638da5cb5b1461020257806395d89b411461021357600080fd5b806323b872dd116100de57806323b872dd1461018d57806342842e0e146101a057806345576f94146101b35780636352211e146101d457600080fd5b806301ffc9a71461011057806306fdde0314610138578063081812fc1461014d578063095ea7b314610178575b600080fd5b61012361011e366004611551565b6102a3565b60405190151581526020015b60405180910390f35b6101406102f5565b60405161012f919061167f565b61016061015b3660046115cf565b610387565b6040516001600160a01b03909116815260200161012f565b61018b610186366004611528565b610414565b005b61018b61019b36600461143a565b61052a565b61018b6101ae36600461143a565b61055b565b6101c66101c1366004611589565b610576565b60405190815260200161012f565b6101606101e23660046115cf565b6105be565b6101c66101f53660046113ee565b610635565b61018b6106bc565b6007546001600160a01b0316610160565b610140610722565b61018b6102293660046114ee565b610731565b61018b61023c366004611475565b6107f6565b61014061024f3660046115cf565b61082e565b610123610262366004611408565b6001600160a01b03918216600090815260056020908152604080832093909416825291909152205460ff1690565b61018b61029e3660046113ee565b6109a5565b60006001600160e01b031982166380ac58cd60e01b14806102d457506001600160e01b03198216635b5e139f60e01b145b806102ef57506301ffc9a760e01b6001600160e01b03198316145b92915050565b606060008054610304906117a4565b80601f0160208091040260200160405190810160405280929190818152602001828054610330906117a4565b801561037d5780601f106103525761010080835404028352916020019161037d565b820191906000526020600020905b81548152906001019060200180831161036057829003601f168201915b5050505050905090565b600061039282610a70565b6103f85760405162461bcd60e51b815260206004820152602c60248201527f4552433732313a20617070726f76656420717565727920666f72206e6f6e657860448201526b34b9ba32b73a103a37b5b2b760a11b60648201526084015b60405180910390fd5b506000908152600460205260409020546001600160a01b031690565b600061041f826105be565b9050806001600160a01b0316836001600160a01b0316141561048d5760405162461bcd60e51b815260206004820152602160248201527f4552433732313a20617070726f76616c20746f2063757272656e74206f776e656044820152603960f91b60648201526084016103ef565b336001600160a01b03821614806104a957506104a98133610262565b61051b5760405162461bcd60e51b815260206004820152603860248201527f4552433732313a20617070726f76652063616c6c6572206973206e6f74206f7760448201527f6e6572206e6f7220617070726f76656420666f7220616c6c000000000000000060648201526084016103ef565b6105258383610a8d565b505050565b6105343382610afb565b6105505760405162461bcd60e51b81526004016103ef906116e4565b610525838383610be1565b610525838383604051806020016040528060008152506107f6565b6000610586600880546001019055565b600061059160085490565b905061059d3382610d81565b6105a78184610eb4565b6009546102ef906001600160a01b03166001610731565b6000818152600260205260408120546001600160a01b0316806102ef5760405162461bcd60e51b815260206004820152602960248201527f4552433732313a206f776e657220717565727920666f72206e6f6e657869737460448201526832b73a103a37b5b2b760b91b60648201526084016103ef565b60006001600160a01b0382166106a05760405162461bcd60e51b815260206004820152602a60248201527f4552433732313a2062616c616e636520717565727920666f7220746865207a65604482015269726f206164647265737360b01b60648201526084016103ef565b506001600160a01b031660009081526003602052604090205490565b6007546001600160a01b031633146107165760405162461bcd60e51b815260206004820181905260248201527f4f776e61626c653a2063616c6c6572206973206e6f7420746865206f776e657260448201526064016103ef565b6107206000610f3f565b565b606060018054610304906117a4565b6001600160a01b03821633141561078a5760405162461bcd60e51b815260206004820152601960248201527f4552433732313a20617070726f766520746f2063616c6c65720000000000000060448201526064016103ef565b3360008181526005602090815260408083206001600160a01b03871680855290835292819020805460ff191686151590811790915590519081529192917f17307eab39ab6107e8899845ad3d59bd9653f200f220920489ca2b5937696c31910160405180910390a35050565b6108003383610afb565b61081c5760405162461bcd60e51b81526004016103ef906116e4565b61082884848484610f91565b50505050565b606061083982610a70565b61089f5760405162461bcd60e51b815260206004820152603160248201527f45524337323155524953746f726167653a2055524920717565727920666f72206044820152703737b732bc34b9ba32b73a103a37b5b2b760791b60648201526084016103ef565b600082815260066020526040812080546108b8906117a4565b80601f01602080910402602001604051908101604052809291908181526020018280546108e4906117a4565b80156109315780601f1061090657610100808354040283529160200191610931565b820191906000526020600020905b81548152906001019060200180831161091457829003601f168201915b50505050509050600061094f60408051602081019091526000815290565b9050805160001415610962575092915050565b81511561099457808260405160200161097c929190611613565b60405160208183030381529060405292505050919050565b61099d84610fc4565b949350505050565b6007546001600160a01b031633146109ff5760405162461bcd60e51b815260206004820181905260248201527f4f776e61626c653a2063616c6c6572206973206e6f7420746865206f776e657260448201526064016103ef565b6001600160a01b038116610a645760405162461bcd60e51b815260206004820152602660248201527f4f776e61626c653a206e6577206f776e657220697320746865207a65726f206160448201526564647265737360d01b60648201526084016103ef565b610a6d81610f3f565b50565b6000908152600260205260409020546001600160a01b0316151590565b600081815260046020526040902080546001600160a01b0319166001600160a01b0384169081179091558190610ac2826105be565b6001600160a01b03167f8c5be1e5ebec7d5bd14f71427d1e84f3dd0314c0f7b2291e5b200ac8c7c3b92560405160405180910390a45050565b6000610b0682610a70565b610b675760405162461bcd60e51b815260206004820152602c60248201527f4552433732313a206f70657261746f7220717565727920666f72206e6f6e657860448201526b34b9ba32b73a103a37b5b2b760a11b60648201526084016103ef565b6000610b72836105be565b9050806001600160a01b0316846001600160a01b03161480610bad5750836001600160a01b0316610ba284610387565b6001600160a01b0316145b8061099d57506001600160a01b0380821660009081526005602090815260408083209388168352929052205460ff1661099d565b826001600160a01b0316610bf4826105be565b6001600160a01b031614610c5c5760405162461bcd60e51b815260206004820152602960248201527f4552433732313a207472616e73666572206f6620746f6b656e2074686174206960448201526839903737ba1037bbb760b91b60648201526084016103ef565b6001600160a01b038216610cbe5760405162461bcd60e51b8152602060048201526024808201527f4552433732313a207472616e7366657220746f20746865207a65726f206164646044820152637265737360e01b60648201526084016103ef565b610cc9600082610a8d565b6001600160a01b0383166000908152600360205260408120805460019290610cf2908490611761565b90915550506001600160a01b0382166000908152600360205260408120805460019290610d20908490611735565b909155505060008181526002602052604080822080546001600160a01b0319166001600160a01b0386811691821790925591518493918716917fddf252ad1be2c89b69c2b068fc378daa952ba7f163c4a11628f55a4df523b3ef91a4505050565b6001600160a01b038216610dd75760405162461bcd60e51b815260206004820181905260248201527f4552433732313a206d696e7420746f20746865207a65726f206164647265737360448201526064016103ef565b610de081610a70565b15610e2d5760405162461bcd60e51b815260206004820152601c60248201527f4552433732313a20746f6b656e20616c7265616479206d696e7465640000000060448201526064016103ef565b6001600160a01b0382166000908152600360205260408120805460019290610e56908490611735565b909155505060008181526002602052604080822080546001600160a01b0319166001600160a01b03861690811790915590518392907fddf252ad1be2c89b69c2b068fc378daa952ba7f163c4a11628f55a4df523b3ef908290a45050565b610ebd82610a70565b610f205760405162461bcd60e51b815260206004820152602e60248201527f45524337323155524953746f726167653a2055524920736574206f66206e6f6e60448201526d32bc34b9ba32b73a103a37b5b2b760911b60648201526084016103ef565b60008281526006602090815260409091208251610525928401906112c3565b600780546001600160a01b038381166001600160a01b0319831681179093556040519116919082907f8be0079c531659141344cd1fd0a4f28419497f9722a3daafe3b4186f6b6457e090600090a35050565b610f9c848484610be1565b610fa88484848461109c565b6108285760405162461bcd60e51b81526004016103ef90611692565b6060610fcf82610a70565b6110335760405162461bcd60e51b815260206004820152602f60248201527f4552433732314d657461646174613a2055524920717565727920666f72206e6f60448201526e3732bc34b9ba32b73a103a37b5b2b760891b60648201526084016103ef565b600061104a60408051602081019091526000815290565b9050600081511161106a5760405180602001604052806000815250611095565b80611074846111a9565b604051602001611085929190611613565b6040516020818303038152906040525b9392505050565b60006001600160a01b0384163b1561119e57604051630a85bd0160e11b81526001600160a01b0385169063150b7a02906110e0903390899088908890600401611642565b602060405180830381600087803b1580156110fa57600080fd5b505af192505050801561112a575060408051601f3d908101601f191682019092526111279181019061156d565b60015b611184573d808015611158576040519150601f19603f3d011682016040523d82523d6000602084013e61115d565b606091505b50805161117c5760405162461bcd60e51b81526004016103ef90611692565b805181602001fd5b6001600160e01b031916630a85bd0160e11b14905061099d565b506001949350505050565b6060816111cd5750506040805180820190915260018152600360fc1b602082015290565b8160005b81156111f757806111e1816117df565b91506111f09050600a8361174d565b91506111d1565b60008167ffffffffffffffff81111561122057634e487b7160e01b600052604160045260246000fd5b6040519080825280601f01601f19166020018201604052801561124a576020820181803683370190505b5090505b841561099d5761125f600183611761565b915061126c600a866117fa565b611277906030611735565b60f81b81838151811061129a57634e487b7160e01b600052603260045260246000fd5b60200101906001600160f81b031916908160001a9053506112bc600a8661174d565b945061124e565b8280546112cf906117a4565b90600052602060002090601f0160209004810192826112f15760008555611337565b82601f1061130a57805160ff1916838001178555611337565b82800160010185558215611337579182015b8281111561133757825182559160200191906001019061131c565b50611343929150611347565b5090565b5b808211156113435760008155600101611348565b600067ffffffffffffffff808411156113775761137761183a565b604051601f8501601f19908116603f0116810190828211818310171561139f5761139f61183a565b816040528093508581528686860111156113b857600080fd5b858560208301376000602087830101525050509392505050565b80356001600160a01b03811681146113e957600080fd5b919050565b6000602082840312156113ff578081fd5b611095826113d2565b6000806040838503121561141a578081fd5b611423836113d2565b9150611431602084016113d2565b90509250929050565b60008060006060848603121561144e578081fd5b611457846113d2565b9250611465602085016113d2565b9150604084013590509250925092565b6000806000806080858703121561148a578081fd5b611493856113d2565b93506114a1602086016113d2565b925060408501359150606085013567ffffffffffffffff8111156114c3578182fd5b8501601f810187136114d3578182fd5b6114e28782356020840161135c565b91505092959194509250565b60008060408385031215611500578182fd5b611509836113d2565b91506020830135801515811461151d578182fd5b809150509250929050565b6000806040838503121561153a578182fd5b611543836113d2565b946020939093013593505050565b600060208284031215611562578081fd5b813561109581611850565b60006020828403121561157e578081fd5b815161109581611850565b60006020828403121561159a578081fd5b813567ffffffffffffffff8111156115b0578182fd5b8201601f810184136115c0578182fd5b61099d8482356020840161135c565b6000602082840312156115e0578081fd5b5035919050565b600081518084526115ff816020860160208601611778565b601f01601f19169290920160200192915050565b60008351611625818460208801611778565b835190830190611639818360208801611778565b01949350505050565b6001600160a01b0385811682528416602082015260408101839052608060608201819052600090611675908301846115e7565b9695505050505050565b60208152600061109560208301846115e7565b60208082526032908201527f4552433732313a207472616e7366657220746f206e6f6e20455243373231526560408201527131b2b4bb32b91034b6b83632b6b2b73a32b960711b606082015260800190565b60208082526031908201527f4552433732313a207472616e736665722063616c6c6572206973206e6f74206f6040820152701ddb995c881b9bdc88185c1c1c9bdd9959607a1b606082015260800190565b600082198211156117485761174861180e565b500190565b60008261175c5761175c611824565b500490565b6000828210156117735761177361180e565b500390565b60005b8381101561179357818101518382015260200161177b565b838111156108285750506000910152565b600181811c908216806117b857607f821691505b602082108114156117d957634e487b7160e01b600052602260045260246000fd5b50919050565b60006000198214156117f3576117f361180e565b5060010190565b60008261180957611809611824565b500690565b634e487b7160e01b600052601160045260246000fd5b634e487b7160e01b600052601260045260246000fd5b634e487b7160e01b600052604160045260246000fd5b6001600160e01b031981168114610a6d57600080fdfea26469706673582212209f0534e61c2746d5e76150f6e1be3f05038efff231262495a511846814884e1d64736f6c63430008040033",
  "linkReferences": {},
  "deployedLinkReferences": {}
}